:03000000020A45AC
:0C0A4500787FE4F6D8FD758150020A8C21
:100C0500040870AC3300011371070C0000000000EC
:080C15000000041400000000BF
:100AD100120003120E2D754B00754C00754D1375E8
:100AE1004E00754F0075500C7B007A007908120C8E
:100AF1008F120E65120E78EF600E7B007A00790C72
:100B01007D07120E5C120E6C120E44C3EF9517FF97
:100B1100EE9516FEED9515FDEC9514FC7BA07A86FD
:100B210079017800D3120C7850C7754B00754C00D1
:100B3100754D13754E00754F0075500C7B007A0092
:100B41007908120C8F120E448F178E168D158C1486
:020B5100809F83
:0B0C1D000147000641FF0E75FF0E723C
:030E7200020D6D01
:030E750002000E6A
:07000300AA42A943020C8987
:090E5C00854682854583020C8D58
:03002300020D418A
:100D4100C0E0C0D075D000C000C007309815C2986F
:100D5100E547C39403500AAF470547743D2FF8A6F2
:0C0D610099D200D007D000D0D0D0E032F2
:100E160030000D743D2547F8E4F6FB7A00793D2253
:070E26007B007A0079002235
:0E0E4D00C200E4F5477F04783DE4F608DFFCC0
:010E5B002274
:100C2800043900000000142100000000000000004A
:0C0C3800000000000000000000000000B0
:040DBA007D01E4FFD4
:100DBE00EF14600D14601024027011ED24FF929058
:0D0DCE0022ED24FF929122ED24FF92952248
:100DFB00EF600F24FE600704700EA2918006A2958F
:0B0E0B008002A290E433FF227F00224F
:100E2D00438901758CFF758AA4D2A9D28CD2AF22C9
:03000B00020CCC18
:100CCC00C0E0C0D075D000C004C005C006C0077518
:100CDC008CFF758AA4AF3CAE3BAD3AAC39EF240126
:100CEC00F53CE43EF53BE43DF53AE43CF539D00700
:0B0CFC00D006D005D004D0D0D0E032EC
:070E3D007D017F01120DBED3
:090E4400AF3CAE3BAD3AAC3922E3
:100DDB00E4FDFCC3ED9FEC9E5015E4FBFA0BBB004E
:0F0DEB00010AEB64784A70F50DBD00010C80E43D
:010DFA0022D6
:10000E00759850438920758DFD758BFDD28ED2ACBF
:03001E00D2AF223C
:100D6D008B488A49894AAF051DEF601AAB48054A81
:100D7D00E54AAA497002054914F9120C4DF599304E
:070D8D0099FDC29980E022EC
:100D94008B268A278928854B29854C2A854D2B85C6
:100DA4004E2C854F2D85502E753401753301E4F595
:060DB40032F530F52F229C
:1008F500120E448F388E378D368C35E53324FE60E5
:100905002514605A2402600302099C7D017F0112AF
:100915000DBE1F120DBE85382485372385362285E9
:10092500352175330222C3E5389524FFE537952334
:10093500FEE5369522FDE5359521FCE47B01FAF9C6
:10094500F8D3120C785050E4FD7F01120DBE8538A6
:100955002485372385362285352175330322C3E562
:10096500389524FFE5379523FEE5369522FDE535D7
:100975009521FCE47B01FAF9F8D3120C785018E4C0
:10098500FDFF120DBE853824853723853622853532
:080995002175340275330422C0
:10002600120E448F388E378D368C35E53324FB60BF
:10003600691470030200DE147003020109240360D0
:1000460003020143C3E5389524FFE5379523FEE512
:10005600369522FDE5359521FCE47B01FAF9F8D3C6
:10006600120C784003020143AB26AA27A928120CDA
:100076004DF525AF30A807088002C333D8FCF52517
:100086005480FD120E3F8F388E378D368C358F2477
:100096008E238D228C2175330522C3E5389524FFE6
:1000A600E5379523FEE5369522FDE5359521FCE4F9
:1000B6007B01FAF9F8D3120C784003020143120DC2
:1000C600BA120E448F388E378D368C358F248E2398
:1000D6008D228C2175330622C3E5389524FFE5373A
:1000E6009523FEE5369522FDE5359521FCE47B0159
:1000F600FAF9F8D3120C785044E4FDFF120DBE75E0
:100106003307220530E530B4081DE4F530120E44FD
:100116008F388E378D368C358F248E238D228C2109
:1001260075340375330822120E448F388E378D3698
:0E0136008C358F248E238D228C21753304226C
:10037300120E448F388E378D368C35E53324F76073
:100383004814700302040A2402600302047DC3E5D7
:10039300389524FFE5379523FEE5369522FDE535AF
:1003A3009521FCE47B01FAF9F8D3120C784003029F
:1003B300047D120E3D8F388E378D368C358F248E0B
:1003C300238D228C2175330922C3E5389524FFE55B
:1003D300379523FEE5369522FDE5359521FCE47B33
:1003E30001FAF9F8D3120C78400302047D120DBA16
:1003F300120E448F388E378D368C358F248E238D95
:10040300228C2175330A22C3E5389524FFE53795FD
:1004130023FEE5369522FDE5359521FCE47B01FAC3
:10042300F9F8D3120C785052052FE4F5307F0112FE
:100433000DFB8F31E4FDFF120DBE120E448F388E7B
:10044300378D368C358F248E238D228C21E53170A8
:1004530023E52FC39404501274012528F528E435AD
:1004630027F52775340275330422E4F52F75340418
:0B0473007533272275340D75332A22E3
:10074800120E448F388E378D368C35E53324D860B9
:10075800541470030207E52402600302081FC3E56E
:10076800389524FFE5379523FEE5369522FDE535D6
:100778009521FCE47B01FAF9F8D3120C78400302C6
:10078800081FE4FD7F01120DBE0D1F120DBE120ED3
:10079800448F388E378D368C358F248E238D228C5E
:1007A8002175332822C3E5389524FFE5379523FEC4
:1007B800E5369522FDE5359521FCE47B01FAF9F84B
:1007C800D3120C785051120E3D8F388E378D368CDF
:1007D800358F248E238D228C2175332922C3E53849
:1007E8009524FFE5379523FEE5369522FDE53595F9
:1007F80021FCE47B01FAF9F8D3120C785019120E97
:10080800448F388E378D368C358F248E238D228CED
:080818002175340575330B2234
:100D0700120E448F388E378D368C35E53324F570C7
:100D170028C3E5389524FFE5379523FEE536952268
:100D2700FDE5359521FCE47B207A03F9F8D3120C15
:0A0D370078500675340675330C225F
:10099D00120E448F388E378D368C35E53324F36047
:1009AD002514605A24026003020A447D017F01125E
:1009BD000DBE1F120DBE8538248537238536228541
:1009CD00352175330D22C3E5389524FFE537952381
:1009DD00FEE5369522FDE5359521FCE47B01FAF91E
:1009ED00F8D3120C785050E4FD7F01120DBE8538FE
:1009FD002485372385362285352175330E22C3E5AF
:100A0D00389524FFE5379523FEE5369522FDE5352E
:100A1D009521FCE47B01FAF9F8D3120C785018E417
:100A2D00FDFF120DBE853824853723853622853589
:080A3D00217534077533112205
:10014400120E448F388E378D368C35E53324EE60AD
:10015400691470030201FC14700302022724036073
:1001640003020261C3E5389524FFE5379523FEE5D4
:10017400369522FDE5359521FCE47B01FAF9F8D3A7
:10018400120C784003020261AB29AA2AA92B120C93
:100194004DF525AF30A807088002C333D8FCF525F8
:1001A4005480FD120E3F8F388E378D368C358F2458
:1001B4008E238D228C2175331222C3E5389524FFBA
:1001C400E5379523FEE5369522FDE5359521FCE4DA
:1001D4007B01FAF9F8D3120C784003020261120D84
:1001E400BA120E448F388E378D368C358F248E2379
:1001F4008D228C2175331322C3E5389524FFE5370E
:100204009523FEE5369522FDE5359521FCE47B0139
:10021400FAF9F8D3120C785044E4FDFF120DBE75C0
:100224003314220530E530B4081DE4F530120E44D1
:100234008F388E378D368C358F248E238D228C21EA
:1002440075340875331622120E448F388E378D3666
:0E0254008C358F248E238D228C217533112240
:10058000120E448F388E378D368C35E53324E96072
:100590004814700302061424026003020668C3E5CF
:1005A000389524FFE5379523FEE5369522FDE535A0
:1005B0009521FCE47B01FAF9F8D3120C7840030290
:1005C0000668120E3D8F388E378D368C358F248E0F
:1005D000238D228C2175331722C3E5389524FFE53E
:1005E000379523FEE5369522FDE5359521FCE47B24
:1005F00001FAF9F8D3120C78506E120DBA120E44AB
:100600008F388E378D368C358F248E238D228C211A
:1006100075331822C3E5389524FFE5379523FEE5A9
:10062000369522FDE5359521FCE47B01FAF9F8D3F6
:10063000120C7850337F01120DFB8F31E4F530FD41
:10064000FF120DBE120E448F388E378D368C358FCB
:10065000248E238D228C21E5317007753409753382
:09066000192275340D75332A22AC
:10047E00120E448F388E378D368C35E53324E66078
:10048E001814605014700302052C24036003020537
:10049E007FE4F525F53002057CC3E5389524FFE5AC
:1004AE00379523FEE5369522FDE5359521FCE47B57
:1004BE0001FAF9F8D3120C78400302057F120E3DB3
:1004CE008F388E378D368C358F248E238D228C214E
:1004DE0075331B22C3E5389524FFE5379523FEE5DA
:1004EE00369522FDE5359521FCE47B01FAF9F8D32A
:1004FE00120C78507C120DBAE52525E0F5250F1269
:10050E000DFBEF42250530120E448F388E378D3697
:10051E008C358F248E238D228C2175331C22C3E5BE
:10052E00389524FFE5379523FEE5369522FDE53512
:10053E009521FCE47B01FAF9F8D3120C785032E4E1
:10054E00FDFF120DBE120E448F388E378D368C3550
:10055E008F248E238D228C21E530B4081175340B37
:10056E0075331DAB2CAA2DA92EE525020C6675330D
:02057E001A223F
:10026200120E448F388E378D368C35E53324E2609A
:100272003514606F14700302032024036003020329
:1002820072120E448F388E378D368C358F248E2322
:100292008D228C21052FE52FB4070775340C753399
:1002A200232275331E22C3E5389524FFE5379523B3
:1002B200FEE5369522FDE5359521FCE47B01FAF950
:1002C200F8D3120C784003020372E4FD120E3F8F42
:1002D200388E378D368C358F248E238D228C217566
:1002E200331F22C3E5389524FFE5379523FEE53613
:1002F2009522FDE5359521FCE47B01FAF9F8D3124C
:100302000C78506C120DBA120E448F388E378D361F
:100312008C358F248E238D228C2175332022C3E5C8
:10032200389524FFE5379523FEE5369522FDE53520
:100332009521FCE47B01FAF9F8D3120C785031E4F0
:10034200FDFF120DBE120E448F388E378D368C355E
:100352008F248E238D228C21E52FC3940750117593
:1003620034097533197401252EF52EE4352DF52D3A
:010372002268
:10082000120E448F388E378D368C35E53324DC60DC
:10083000481470030208B4240260030208F4C3E5FC
:10084000389524FFE5379523FEE5369522FDE535FD
:100850009521FCE47B01FAF9F8D3120C78400302ED
:1008600008F4120E3D8F388E378D368C358F248EDE
:10087000238D228C2175332422C3E5389524FFE58E
:10088000379523FEE5369522FDE5359521FCE47B81
:1008900001FAF9F8D3120C78505A120DBA120E441C
:1008A0008F388E378D368C358F248E238D228C2178
:1008B00075332522C3E5389524FFE5379523FEE5FA
:1008C000369522FDE5359521FCE47B01FAF9F8D354
:1008D000120C78501FE4FDFF120DBE120E448F382B
:1008E0008E378D368C358F248E238D228C21753456
:0508F0000D75332A2202
:10066900120E448F388E378D368C35E53324D5609C
:100679005414700302070624026003020747C3E506
:10068900389524FFE5379523FEE5369522FDE535B6
:100699009521FCE47B01FAF9F8D3120C78400302A6
:1006A9000747E4FD7F01120DBE0D1F120DBE120E8C
:1006B900448F388E378D368C358F248E238D228C3E
:1006C9002175332B22C3E5389524FFE5379523FEA1
:1006D900E5369522FDE5359521FCE47B01FAF9F82B
:1006E900D3120C785058120E3D8F388E378D368CB8
:1006F900358F248E238D228C2175332C22C3E53826
:100709009524FFE5379523FEE5369522FDE53595D8
:1007190021FCE47B01FAF9F8D3120C785020120E6F
:10072900448F388E378D368C358F248E238D228CCD
:0F07390021E4F52FF530F53475330175320122C7
:100B5300E53414B40D005059900B6975F003A4C526
:100B63008325F0C58373020B90020B93020B96024D
:100B73000B99020B9C020B9F020BA2020BA5020B0B
:100B8300A8020BB4020BAB020BAE020BB10208F5C9
:100B9300020026020373020748020D0702099D02A1
:100BA300014402058002047E02026202082012064A
:020BB3006922B5
:030E7800AF322274
:060E6C00E4F532AF322272
:080C44000618FF0BB5FF0E7B43
:100BB500151E151E151EA81EA60308A60208A601C9
:100BC500A81E860308E6FA08E6F9C003C002E51E7A
:100BD5002403F8860308E6FA08E68B4B8A4CF54DA4
:100BE500E51E2406F8860308E6FA08E68B4E8A4FCA
:100BF500F550D002D003120D94E51E2409F51E22EE
:030E7B00020B5314
:100C8F008B488A49894AAA4FA950151E151E151E51
:100C9F00A81EA64E08A60208A601AA4CA94D151E0D
:100CAF00151E151EA81EA64B08A60208A601AB48C6
:0D0CBF00AA49A94A851A82851983020C8D65
:070E6500AA1CA91D020C8963
:100A5100020AD1E493A3F8E493A34003F68001F2E0
:100A610008DFF48029E493A3F85407240CC8C333A6
:100A7100C4540F4420C8834004F456800146F6DF75
:100A8100E4800B0102040810204080900C05E47EF4
:100A9100019360BCA3FF543F30E509541FFEE4936A
:100AA100A360010ECF54C025E060A840B8E493A331
:100AB100FAE493A3F8E493A3C8C582C8CAC583CA5C
:100AC100F0A3C8C582C8CAC583CADFE9DEE780BE14
:010C4C0000A7
:100C4D00BB010689828A83E0225002E722BBFE02A5
:090C5D00E32289828A83E49322D8
:100C6600BB010689828A83F0225002F722BBFE016D
:020C7600F32267
:100C7800EB9FF5F0EA9E42F0E99D42F0E89C45F0D2
:010C88002249
:060C89008A838982E473F6
:00000001FF
