:0A000000020A45AA1CA91D020C8982
:10000B00020CCC759850438920758DFD758BFDD2F4
:06001B008ED2ACD2AF2230
:10002300020D42120E0E8F388E378D368C35E53326
:1000330024FB60691470030200DE147003020109DB
:1000430024036003020143C3E5389524FFE5379594
:1000530023FEE5369522FDE5359521FCE47B05FA83
:10006300F9F8D3120C784003020143AB26AA27A95F
:1000730028120C4DF525AF30A807088002C333D8EA
:10008300FCF5255480FD120E098F388E378D368C82
:10009300358F248E238D228C2175330522C3E538B9
:1000A3009524FFE5379523FEE5369522FDE5359545
:1000B30021FCE47B03FAF9F8D3120C784003020124
:1000C30043120DBB120E0E8F388E378D368C358F43
:1000D300248E238D228C2175330622C3E538952483
:1000E300FFE5379523FEE5369522FDE5359521FCA1
:1000F300E47B05FAF9F8D3120C785044E4FDFF12BF
:100103000DBF753307220530E530B4081DE4F53023
:10011300120E0E8F388E378D368C358F248E238DAD
:10012300228C2175340375330822120E0E8F388EFC
:10013300378D368C358F248E238D228C2175330495
:1001430022120E0E8F388E378D368C35E53324EE22
:1001530060691470030201FC147003020227240374
:100163006003020261C3E5389524FFE5379523FE5A
:10017300E5369522FDE5359521FCE47B03FAF9F894
:10018300D3120C784003020261AB29AA2AA92B12CD
:100193000C4DF525AF30A807088002C333D8FCF512
:1001A300255480FD120E098F388E378D368C358F8E
:1001B300248E238D228C2175331222C3E538952496
:1001C300FFE5379523FEE5369522FDE5359521FCC0
:1001D300E47B03FAF9F8D3120C78400302026112AC
:1001E3000DBB120E0E8F388E378D368C358F248EC5
:1001F300238D228C2175331322C3E5389524FFE523
:10020300379523FEE5369522FDE5359521FCE47B04
:1002130005FAF9F8D3120C785044E4FDFF120DBF30
:10022300753314220530E530B4081DE4F530120EA1
:100233000E8F388E378D368C358F248E238D228CFE
:100243002175340875331622120E0E8F388E378DB2
:10025300368C358F248E238D228C217533112212F7
:100263000E0E8F388E378D368C35E53324E26035AC
:1002730014606F14700302032024036003020372EB
:10028300120E0E8F388E378D368C358F248E238D3C
:10029300228C21052FE52FB4070775340C75332302
:1002A3002275331E22C3E5389524FFE5379523FED7
:1002B300E5369522FDE5359521FCE47B03FAF9F853
:1002C300D3120C784003020372E4FD120E098F3837
:1002D3008E378D368C358F248E238D228C2175336A
:1002E3001F22C3E5389524FFE5379523FEE53695B0
:1002F30022FDE5359521FCE47B03FAF9F8D3120CD2
:1003030078506C120DBB120E0E8F388E378D368CD3
:10031300358F248E238D228C2175332022C3E5381B
:100323009524FFE5379523FEE5369522FDE53595C2
:1003330021FCE47B05FAF9F8D3120C785031E4FD83
:10034300FF120DBF120E0E8F388E378D368C358F00
:10035300248E238D228C21E52FC3940750117534ED
:10036300097533197401252EF52EE4352DF52D224B
:10037300120E0E8F388E378D368C35E53324F760A9
:100383004814700302040A2402600302047DC3E5D7
:10039300389524FFE5379523FEE5369522FDE535AF
:1003A3009521FCE47B03FAF9F8D3120C784003029D
:1003B300047D120E078F388E378D368C358F248E41
:1003C300238D228C2175330922C3E5389524FFE55B
:1003D300379523FEE5369522FDE5359521FCE47B33
:1003E30003FAF9F8D3120C78400302047D120DBB13
:1003F300120E0E8F388E378D368C358F248E238DCB
:10040300228C2175330A22C3E5389524FFE53795FD
:1004130023FEE5369522FDE5359521FCE47B05FABF
:10042300F9F8D3120C785052052FE4F5307F0112FE
:100433000DDC8F31E4FDFF120DBF120E0E8F388ECF
:10044300378D368C358F248E238D228C21E53170A8
:1004530023E52FC39404501274012528F528E435AD
:1004630027F52775340275330422E4F52F75340418
:100473007533272275340D75332A22120E0E8F38E9
:100483008E378D368C35E53324E6601814605014AE
:10049300700302052C2403600302057FE4F525F5B0
:1004A3003002057CC3E5389524FFE5379523FEE547
:1004B300369522FDE5359521FCE47B03FAF9F8D363
:1004C300120C78400302057F120E078F388E378D8A
:1004D300368C358F248E238D228C2175331B22C3BA
:1004E300E5389524FFE5379523FEE5369522FDE5AE
:1004F300359521FCE47B03FAF9F8D3120C78507C90
:10050300120DBBE52525E0F5250F120DDCEF422585
:100513000530120E0E8F388E378D368C358F248E24
:10052300238D228C2175331C22C3E5389524FFE5E6
:10053300379523FEE5369522FDE5359521FCE47BD1
:1005430005FAF9F8D3120C785032E4FDFF120DBF0F
:10055300120E0E8F388E378D368C358F248E238D69
:10056300228C21E530B4081175340B75331DAB2C87
:10057300AA2DA92EE525020C6675331A22120E0E3A
:100583008F388E378D368C35E53324E96048147007
:100593000302061424026003020668C3E5389524A7
:1005A300FFE5379523FEE5369522FDE5359521FCDC
:1005B300E47B03FAF9F8D3120C78400302066812BD
:1005C3000E078F388E378D368C358F248E238D22F0
:1005D3008C2175331722C3E5389524FFE53795231E
:1005E300FEE5369522FDE5359521FCE47B03FAF91A
:1005F300F8D3120C78506E120DBB120E0E8F388E7C
:10060300378D368C358F248E238D228C21753318AC
:1006130022C3E5389524FFE5379523FEE536952279
:10062300FDE5359521FCE47B05FAF9F8D3120C7846
:1006330050337F01120DDC8F31E4F530FDFF120DD5
:10064300BF120E0E8F388E378D368C358F248E2346
:100653008D228C21E53170077534097533192275A4
:10066300340D75332A22120E0E8F388E378D368C49
:1006730035E53324D5605414700302070624026061
:1006830003020747C3E5389524FFE5379523FEE5C5
:10069300369522FDE5359521FCE47B05FAF9F8D37F
:1006A300120C784003020747E4FD7F01120DBF0DD2
:1006B3001F120DBF120E0E8F388E378D368C358F6D
:1006C300248E238D228C2175332B22C3E538952468
:1006D300FFE5379523FEE5369522FDE5359521FCAB
:1006E300E47B03FAF9F8D3120C785058120E078FF3
:1006F300388E378D368C358F248E238D228C217541
:10070300332C22C3E5389524FFE5379523FEE536E0
:100713009522FDE5359521FCE47B05FAF9F8D31222
:100723000C785020120E0E8F388E378D368C358F05
:10073300248E238D228C21E4F52FF530F534753387
:100743000175320122120E0E8F388E378D368C359D
:10075300E53324D860541470030207E524026003D0
:1007630002081FC3E5389524FFE5379523FEE536D8
:100773009522FDE5359521FCE47B05FAF9F8D312C2
:100783000C78400302081FE4FD7F01120DBF0D1F0B
:10079300120DBF120E0E8F388E378D368C358F2487
:1007A3008E238D228C2175332822C3E5389524FFAF
:1007B300E5379523FEE5369522FDE5359521FCE4E5
:1007C3007B03FAF9F8D3120C785051120E078F38C5
:1007D3008E378D368C358F248E238D228C21753365
:1007E3002922C3E5389524FFE5379523FEE53695A1
:1007F30022FDE5359521FCE47B05FAF9F8D3120CCB
:10080300785019120E0E8F388E378D368C358F2413
:100813008E238D228C2175340575330B22120E0E17
:100823008F388E378D368C35E53324DC6048147071
:10083300030208B4240260030208F4C3E5389524D4
:10084300FFE5379523FEE5369522FDE5359521FC39
:10085300E47B03FAF9F8D3120C7840030208F4128C
:100863000E078F388E378D368C358F248E238D224D
:100873008C2175332422C3E5389524FFE53795236E
:10088300FEE5369522FDE5359521FCE47B03FAF977
:10089300F8D3120C78505A120DBB120E0E8F388EED
:1008A300378D368C358F248E238D228C21753325FD
:1008B30022C3E5389524FFE5379523FEE5369522D7
:1008C300FDE5359521FCE47B05FAF9F8D3120C78A4
:1008D300501FE4FDFF120DBF120E0E8F388E378DA1
:1008E300368C358F248E238D228C2175340D7533F0
:1008F3002A22120E0E8F388E378D368C35E533242F
:10090300FE602514605A2402600302099C7D017F66
:1009130001120DBF1F120DBF85382485372385367D
:100923002285352175330222C3E5389524FFE53747
:100933009523FEE5369522FDE5359521FCE47B05FF
:10094300FAF9F8D3120C785050E4FD7F01120DBF71
:10095300853824853723853622853521753303224F
:10096300C3E5389524FFE5379523FEE5369522FD4B
:10097300E5359521FCE47B05FAF9F8D3120C7850A0
:1009830018E4FDFF120DBF853824853723853622F1
:1009930085352175340275330422120E0E8F388E7D
:1009A300378D368C35E53324F3602514605A2402E1
:1009B3006003020A447D017F01120DBF1F120DBFA8
:1009C30085382485372385362285352175330D22D5
:1009D300C3E5389524FFE5379523FEE5369522FDDB
:1009E300E5359521FCE47B05FAF9F8D3120C785030
:1009F30050E4FD7F01120DBF8538248537238536EA
:100A03002285352175330E22C3E5389524FFE5375A
:100A13009523FEE5369522FDE5359521FCE47B051E
:100A2300FAF9F8D3120C785018E4FDFF120DBF85C4
:100A33003824853723853622853521753407753368
:100A43001122787FE4F6D8FD758150020A8C020AE0
:100A5300D1E493A3F8E493A34003F68001F208DF03
:100A6300F48029E493A3F85407240CC8C333C45473
:100A73000F4420C8834004F456800146F6DFE48027
:100A83000B0102040810204080900C05E47E0193C2
:100A930060BCA3FF543F30E509541FFEE493A360F9
:100AA300010ECF54C025E060A840B8E493A3FAE454
:100AB30093A3F8E493A3C8C582C8CAC583CAF0A3A5
:100AC300C8C582C8CAC583CADFE9DEE780BE120E85
:100AD30020120DF7754B00754C00754D13754E00C4
:100AE300754F0075500C7B007A007908120C8F1239
:100AF3000003120E30EF600E7B007A00790C7D0745
:100B0300120E17120E27120E0EC3EF9517FFEE9556
:100B130016FEED9515FDEC9514FC7B807A84791E09
:100B23007800D3120C7850C7754B00754C00754D87
:100B330013754E00754F0075500C7B007A007908D1
:100B4300120C8F120E0E8F178E168D158C14809F1C
:100B5300E53414B40D005059900B6975F003A4C526
:100B63008325F0C58373020B90020B93020B96024D
:100B73000B99020B9C020B9F020BA2020BA5020B0B
:100B8300A8020BB4020BAB020BAE020BB10208F5C9
:100B9300020026020373020748020D0702099D02A1
:100BA300014402058002047E02026202082012064A
:100BB3006922151E151E151EA81EA60308A60208E7
:100BC300A601A81E860308E6FA08E6F9C003C002D8
:100BD300E51E2403F8860308E6FA08E68B4B8A4CE5
:100BE300F54DE51E2406F8860308E6FA08E68B4E63
:100BF3008A4FF550D002D003120D95E51E2409F556
:100C03001E220618FF0BB5FF0E2D0439000000004D
:100C1300142100000000000000000000000000009C
:100C23000000000000000147000641FF0E36FF0EE2
:100C330033040870AC3300011371070C000000008B
:100C430000000004140000000000BB010689828A32
:100C530083E0225002E722BBFE02E32289828A83D9
:100C6300E49322BB010689828A83F0225002F72291
:100C7300BBFE01F322EB9FF5F0EA9E42F0E99D42B1
:100C8300F0E89C45F0228A838982E4738B488A4981
:100C9300894AAA4FA950151E151E151EA81EA64E39
:100CA30008A60208A601AA4CA94D151E151E151E5D
:100CB300A81EA64B08A60208A601AB48AA49A94A42
:100CC300851A82851983020C8DC0E0C0D075D000CF
:100CD300C004C005C006C007758CFF758AFFAF3C12
:100CE300AE3BAD3AAC39EF2401F53CE43EF53BE4D1
:100CF3003DF53AE43CF539D007D006D005D004D011
:100D0300D0D0E032120E0E8F388E378D368C35E50B
:100D13003324F57029C3E5389524FFE5379523FE81
:100D2300E5369522FDE5359521FC7B807A387901FE
:100D33007800D3120C78500675340675330C22C034
:100D4300E0C0D075D000C000C007309815C298E548
:100D530047C39403500AAF470547743D2FF8A6993C
:100D6300D200D007D000D0D0D0E0328B488A498956
:100D73004AAF051DEF601AAB48054AE54AAA497018
:100D830002054914F9120C4DF5993099FDC2998069
:100D9300E0228B268A278928854B29854C2A854D75
:100DA3002B854E2C854F2D85502E753401753301BF
:100DB300E4F532F530F52F227D01E4FFEF14600DE9
:100DC30014601024027011ED24FF929022ED24FF91
:100DD300929122ED24FF929522EF600F24FE60078B
:100DE30004700EA2918006A2958002A290E433FFC4
:100DF300227F0022438901758CFF758AFFD2A9D215
:100E03008CD2AF227D017F01120DBFAF3CAE3BAD53
:100E13003AAC3922854682854583020C8DAA42A9C4
:100E230043020C89E4F532AF3222020B53AF322274
:060E3300020D6E02000E2C
:00000001FF
